{
  "contractName": "Market",
  "abi": [
    {
      "inputs": [
        {
          "internalType": "address",
          "name": "_stockToken",
          "type": "address"
        },
        {
          "internalType": "address",
          "name": "_fiatToken",
          "type": "address"
        }
      ],
      "stateMutability": "nonpayable",
      "type": "constructor"
    },
    {
      "anonymous": false,
      "inputs": [
        {
          "indexed": true,
          "internalType": "address",
          "name": "buyer",
          "type": "address"
        },
        {
          "indexed": false,
          "internalType": "uint256",
          "name": "amountOfFiat",
          "type": "uint256"
        },
        {
          "indexed": false,
          "internalType": "uint256",
          "name": "amountOfStock",
          "type": "uint256"
        }
      ],
      "name": "TokensPurchased",
      "type": "event"
    },
    {
      "anonymous": false,
      "inputs": [
        {
          "indexed": true,
          "internalType": "address",
          "name": "seller",
          "type": "address"
        },
        {
          "indexed": false,
          "internalType": "uint256",
          "name": "amountOfStock",
          "type": "uint256"
        },
        {
          "indexed": false,
          "internalType": "uint256",
          "name": "amountOfFiat",
          "type": "uint256"
        }
      ],
      "name": "TokensSold",
      "type": "event"
    },
    {
      "inputs": [],
      "name": "fiatToken",
      "outputs": [
        {
          "internalType": "contract IERC20",
          "name": "",
          "type": "address"
        }
      ],
      "stateMutability": "view",
      "type": "function"
    },
    {
      "inputs": [],
      "name": "rate",
      "outputs": [
        {
          "internalType": "uint256",
          "name": "",
          "type": "uint256"
        }
      ],
      "stateMutability": "view",
      "type": "function"
    },
    {
      "inputs": [],
      "name": "stockToken",
      "outputs": [
        {
          "internalType": "contract IERC20",
          "name": "",
          "type": "address"
        }
      ],
      "stateMutability": "view",
      "type": "function"
    },
    {
      "inputs": [
        {
          "internalType": "uint256",
          "name": "_fiatAmount",
          "type": "uint256"
        }
      ],
      "name": "buyTokens",
      "outputs": [],
      "stateMutability": "nonpayable",
      "type": "function"
    },
    {
      "inputs": [
        {
          "internalType": "uint256",
          "name": "_stockAmount",
          "type": "uint256"
        }
      ],
      "name": "sellTokens",
      "outputs": [],
      "stateMutability": "nonpayable",
      "type": "function"
    }
  ],
  "bytecode": "0x608060405260646002553480156200001657600080fd5b5060405162000f9438038062000f9483398181016040528101906200003c91906200012f565b816000806101000a81548173ffffffffffffffffffffffffffffffffffffffff021916908373ffffffffffffffffffffffffffffffffffffffff16021790555080600160006101000a81548173ffffffffffffffffffffffffffffffffffffffff021916908373ffffffffffffffffffffffffffffffffffffffff160217905550505062000176565b600080fd5b600073ffffffffffffffffffffffffffffffffffffffff82169050919050565b6000620000f782620000ca565b9050919050565b6200010981620000ea565b81146200011557600080fd5b50565b6000815190506200012981620000fe565b92915050565b60008060408385031215620001495762000148620000c5565b5b6000620001598582860162000118565b92505060206200016c8582860162000118565b9150509250929050565b610e0e80620001866000396000f3fe608060405234801561001057600080fd5b50600436106100575760003560e01c80632c4e722e1461005c5780633610724e1461007a5780635a724a26146100965780636c11bcd3146100b4578063baa8e786146100d0575b600080fd5b6100646100ee565b6040516100719190610835565b60405180910390f35b610094600480360381019061008f9190610881565b6100f4565b005b61009e6103f4565b6040516100ab919061092d565b60405180910390f35b6100ce60048036038101906100c99190610881565b61041a565b005b6100d86107f8565b6040516100e5919061092d565b60405180910390f35b60025481565b6000600254826101049190610977565b90508060008054906101000a900473ffffffffffffffffffffffffffffffffffffffff1673ffffffffffffffffffffffffffffffffffffffff166370a08231306040518263ffffffff1660e01b815260040161016091906109da565b602060405180830381865afa15801561017d573d6000803e3d6000fd5b505050506040513d601f19601f820116820180604052508101906101a19190610a0a565b10156101e2576040517f08c379a00000000000000000000000000000000000000000000000000000000081526004016101d990610a94565b60405180910390fd5b600160009054906101000a900473ffffffffffffffffffffffffffffffffffffffff1673ffffffffffffffffffffffffffffffffffffffff166323b872dd3330856040518463ffffffff1660e01b815260040161024193929190610ab4565b6020604051808303816000875af1158015610260573d6000803e3d6000fd5b505050506040513d601f19601f820116820180604052508101906102849190610b23565b6102c3576040517f08c379a00000000000000000000000000000000000000000000000000000000081526004016102ba90610b9c565b60405180910390fd5b60008054906101000a900473ffffffffffffffffffffffffffffffffffffffff1673ffffffffffffffffffffffffffffffffffffffff1663a9059cbb33836040518363ffffffff1660e01b815260040161031e929190610bbc565b6020604051808303816000875af115801561033d573d6000803e3d6000fd5b505050506040513d601f19601f820116820180604052508101906103619190610b23565b6103a0576040517f08c379a000000000000000000000000000000000000000000000000000000000815260040161039790610c31565b60405180910390fd5b3373ffffffffffffffffffffffffffffffffffffffff167f8fafebcaf9d154343dad25669bfa277f4fbacd7ac6b0c4fed522580e040a0f3383836040516103e8929190610c51565b60405180910390a25050565b600160009054906101000a900473ffffffffffffffffffffffffffffffffffffffff1681565b8060008054906101000a900473ffffffffffffffffffffffffffffffffffffffff1673ffffffffffffffffffffffffffffffffffffffff166370a08231306040518263ffffffff1660e01b815260040161047491906109da565b602060405180830381865afa158015610491573d6000803e3d6000fd5b505050506040513d601f19601f820116820180604052508101906104b59190610a0a565b10156104f6576040517f08c379a00000000000000000000000000000000000000000000000000000000081526004016104ed90610cc6565b60405180910390fd5b6000600254826105069190610d15565b905080600160009054906101000a900473ffffffffffffffffffffffffffffffffffffffff1673ffffffffffffffffffffffffffffffffffffffff166370a08231306040518263ffffffff1660e01b815260040161056491906109da565b602060405180830381865afa158015610581573d6000803e3d6000fd5b505050506040513d601f19601f820116820180604052508101906105a59190610a0a565b10156105e6576040517f08c379a00000000000000000000000000000000000000000000000000000000081526004016105dd90610db8565b60405180910390fd5b60008054906101000a900473ffffffffffffffffffffffffffffffffffffffff1673ffffffffffffffffffffffffffffffffffffffff166323b872dd3330856040518463ffffffff1660e01b815260040161064393929190610ab4565b6020604051808303816000875af1158015610662573d6000803e3d6000fd5b505050506040513d601f19601f820116820180604052508101906106869190610b23565b6106c5576040517f08c379a00000000000000000000000000000000000000000000000000000000081526004016106bc90610c31565b60405180910390fd5b600160009054906101000a900473ffffffffffffffffffffffffffffffffffffffff1673ffffffffffffffffffffffffffffffffffffffff1663a9059cbb33836040518363ffffffff1660e01b8152600401610722929190610bbc565b6020604051808303816000875af1158015610741573d6000803e3d6000fd5b505050506040513d601f19601f820116820180604052508101906107659190610b23565b6107a4576040517f08c379a000000000000000000000000000000000000000000000000000000000815260040161079b90610b9c565b60405180910390fd5b3373ffffffffffffffffffffffffffffffffffffffff167f2dcf9433d75db0d8b1c172641f85e319ffe4ad22e108a95d1847ceb906e5195d83836040516107ec929190610c51565b60405180910390a25050565b60008054906101000a900473ffffffffffffffffffffffffffffffffffffffff1681565b6000819050919050565b61082f8161081c565b82525050565b600060208201905061084a6000830184610826565b92915050565b600080fd5b61085e8161081c565b811461086957600080fd5b50565b60008135905061087b81610855565b92915050565b60006020828403121561089757610896610850565b5b60006108a58482850161086c565b91505092915050565b600073ffffffffffffffffffffffffffffffffffffffff82169050919050565b6000819050919050565b60006108f36108ee6108e9846108ae565b6108ce565b6108ae565b9050919050565b6000610905826108d8565b9050919050565b6000610917826108fa565b9050919050565b6109278161090c565b82525050565b6000602082019050610942600083018461091e565b92915050565b7f4e487b7100000000000000000000000000000000000000000000000000000000600052601160045260246000fd5b60006109828261081c565b915061098d8361081c565b925082820261099b8161081c565b915082820484148315176109b2576109b1610948565b5b5092915050565b60006109c4826108ae565b9050919050565b6109d4816109b9565b82525050565b60006020820190506109ef60008301846109cb565b92915050565b600081519050610a0481610855565b92915050565b600060208284031215610a2057610a1f610850565b5b6000610a2e848285016109f5565b91505092915050565b600082825260208201905092915050565b7f4e6f7420656e6f7567682073746f636b7320696e206d61726b65740000000000600082015250565b6000610a7e601b83610a37565b9150610a8982610a48565b602082019050919050565b60006020820190508181036000830152610aad81610a71565b9050919050565b6000606082019050610ac960008301866109cb565b610ad660208301856109cb565b610ae36040830184610826565b949350505050565b60008115159050919050565b610b0081610aeb565b8114610b0b57600080fd5b50565b600081519050610b1d81610af7565b92915050565b600060208284031215610b3957610b38610850565b5b6000610b4784828501610b0e565b91505092915050565b7f46696174207472616e73666572206661696c6564000000000000000000000000600082015250565b6000610b86601483610a37565b9150610b9182610b50565b602082019050919050565b60006020820190508181036000830152610bb581610b79565b9050919050565b6000604082019050610bd160008301856109cb565b610bde6020830184610826565b9392505050565b7f53746f636b207472616e73666572206661696c65640000000000000000000000600082015250565b6000610c1b601583610a37565b9150610c2682610be5565b602082019050919050565b60006020820190508181036000830152610c4a81610c0e565b9050919050565b6000604082019050610c666000830185610826565b610c736020830184610826565b9392505050565b7f53616e69747920636865636b206661696c656400000000000000000000000000600082015250565b6000610cb0601383610a37565b9150610cbb82610c7a565b602082019050919050565b60006020820190508181036000830152610cdf81610ca3565b9050919050565b7f4e487b7100000000000000000000000000000000000000000000000000000000600052601260045260246000fd5b6000610d208261081c565b9150610d2b8361081c565b925082610d3b57610d3a610ce6565b5b828204905092915050565b7f4e6f7420656e6f756768206c69717569646974792028666961742920696e206d60008201527f61726b6574000000000000000000000000000000000000000000000000000000602082015250565b6000610da2602583610a37565b9150610dad82610d46565b604082019050919050565b60006020820190508181036000830152610dd181610d95565b905091905056fea2646970667358221220f71add9c2094847de482618616d3c57921fd6c085bc57fe22ec07cf4e7ea2eee64736f6c63430008130033",
  "immutableReferences": {},
  "source": "// SPDX-License-Identifier: MIT\r\npragma solidity ^0.8.0;\r\n\r\ninterface IERC20 {\r\n    function transfer(address to, uint256 amount) external returns (bool);\r\n    function transferFrom(\r\n        address from,\r\n        address to,\r\n        uint256 amount\r\n    ) external returns (bool);\r\n    function balanceOf(address account) external view returns (uint256);\r\n}\r\n\r\ncontract Market {\r\n    IERC20 public stockToken;\r\n    IERC20 public fiatToken; // The \"Fake Money\" token\r\n    uint256 public rate = 100; // 1 Fiat = 100 Stock\r\n\r\n    event TokensPurchased(\r\n        address indexed buyer,\r\n        uint256 amountOfFiat,\r\n        uint256 amountOfStock\r\n    );\r\n    event TokensSold(\r\n        address indexed seller,\r\n        uint256 amountOfStock,\r\n        uint256 amountOfFiat\r\n    );\r\n\r\n    constructor(address _stockToken, address _fiatToken) {\r\n        stockToken = IERC20(_stockToken);\r\n        fiatToken = IERC20(_fiatToken);\r\n    }\r\n\r\n    // Buy Stock with Fiat\r\n    function buyTokens(uint256 _fiatAmount) public {\r\n        // Calculate stock amount: if rate is 100, 1 Fiat = 100 Stocks\r\n        // But tokens use 18 decimals, so math is simple direct multiplication if decimals match\r\n        uint256 stockAmount = _fiatAmount * rate;\r\n\r\n        require(\r\n            stockToken.balanceOf(address(this)) >= stockAmount,\r\n            \"Not enough stocks in market\"\r\n        );\r\n\r\n        // Transfer Fiat from User -> Market\r\n        require(\r\n            fiatToken.transferFrom(msg.sender, address(this), _fiatAmount),\r\n            \"Fiat transfer failed\"\r\n        );\r\n\r\n        // Transfer Stock from Market -> User\r\n        require(\r\n            stockToken.transfer(msg.sender, stockAmount),\r\n            \"Stock transfer failed\"\r\n        );\r\n\r\n        emit TokensPurchased(msg.sender, _fiatAmount, stockAmount);\r\n    }\r\n\r\n    // Sell Stock for Fiat\r\n    function sellTokens(uint256 _stockAmount) public {\r\n        require(\r\n            stockToken.balanceOf(address(this)) >= _stockAmount,\r\n            \"Sanity check failed\"\r\n        ); // Not strictly needed but good for checking approvals? No.\r\n\r\n        uint256 fiatAmount = _stockAmount / rate;\r\n\r\n        require(\r\n            fiatToken.balanceOf(address(this)) >= fiatAmount,\r\n            \"Not enough liquidity (fiat) in market\"\r\n        );\r\n\r\n        // Transfer Stock from User -> Market\r\n        require(\r\n            stockToken.transferFrom(msg.sender, address(this), _stockAmount),\r\n            \"Stock transfer failed\"\r\n        );\r\n\r\n        // Transfer Fiat from Market -> User\r\n        require(\r\n            fiatToken.transfer(msg.sender, fiatAmount),\r\n            \"Fiat transfer failed\"\r\n        );\r\n\r\n        emit TokensSold(msg.sender, _stockAmount, fiatAmount);\r\n    }\r\n}\r\n",
  "sourcePath": "C:\\Users\\Isaac\\Desktop\\ganache\\wallet\\contracts\\Market.sol",
  "compiler": {
    "name": "solc",
    "version": "0.8.19+commit.7dd6d404.Emscripten.clang"
  },
  "schemaVersion": "3.4.16",
  "updatedAt": "2025-12-16T03:15:10.720Z",
  "devdoc": {
    "kind": "dev",
    "methods": {},
    "version": 1
  },
  "userdoc": {
    "kind": "user",
    "methods": {},
    "version": 1
  }
}